S01300004170706C69636174696F6E2E737265639D
S11300000C942A000C9452030C9479030C94A003CE
S11300100C94DC040C94B3040C9447000C94470037
S11300200C9447000C9447000C9405040C94DC03D6
S11300300C9447000C9447000C9447000C94470020
S11300400C9438020C9447000C9447000C9447001D
S11300500C94470011241FBECFE5D8E0DEBFCDBF0E
S113006010E0A0E6B0E0E2EDFEE002C005900D92E3
S1130070AE37B107D9F720E0AEE7B0E001C01D927A
S1130080A039B207E1F70E9424010C9467070C948D
S113009000008AE50E9449018AE50E9486010895CC
S11300A00E9469010E94A60108958AE50E944901FF
S11300B00E94A6012FEF83ED90E3215080409040F1
S11300C0E1F700C0000008950E9469018AE50E94DA
S11300D086012FEF83ED90E3215080409040E1F7BB
S11300E000C00000089541E060E081E00E946C02DD
S11300F041E060E081E00E94DF022FEF83ED90E3B6
S1130100215080409040E1F700C0000080E690E07C
S11301100E9420052FEF83ED90E321508040904012
S1130120E1F700C0000085E690E00E9420052FEF73
S113013083ED90E3215080409040E1F700C000003F
S113014081E790E00E9420052FEF83ED90E321509A
S113015080409040E1F700C0000040E060E081E0B2
S11301600E94DF022FEF83ED90E321508040904006
S1130170E1F700C0000008950F931F93CF93DF931E
S113018083E70E941C050E94500060E070E084EB4D
S113019092EC0E94D2012FEF83ED90E32150804036
S11301A09040E1F700C000000E94E101EC012FEF54
S11301B085EA9EE0215080409040E1F700C00000B5
S11301C060E070E084EB92E40E94D2012FEF83EDB3
S11301D090E3215080409040E1F700C000000E946D
S11301E0E1018C012FEF85EA9EE021508040904090
S11301F0E1F700C0000060E070E0CB010E94D20192
S11302002FEF83ED90E3215080409040E1F700C050
S11302100000C017D10748F40B30110530F082E715
S11302200E941C050E9455000AC00C171D0738F4D3
S11302302B9728F08CE60E941C050E946400DF9135
S1130240CF911F910F91089541E065E083E00E94F2
S11302506C020E9405050E9473000E9449000E94DE
S1130260E101EFE3FCE93197F1F700C000008A30C7
S1130270910518F40E94BC00F2CF0B9780F386E638
S11302800E941C050E94490062E082E00E94C301B2
S1130290E6CFCF93C82F41E064E083E00E946C0274
S11302A041E063E082E00E946C0241E064E082E0AD
S11302B00E946C028C2F0E949E0441E063E082E065
S11302C00E94DF0240E064E082E00E94DF02CF91FE
S11302D0089541E064E083E00E946C0241E063E041
S11302E082E00E946C0241E064E082E00E946C02C1
S11302F080E00E949E0440E063E082E00E94DF020E
S113030040E064E082E00E94DF020895CF93C82FAA
S113031041E063E081E00E946C0241E065E082E03C
S11303200E946C0241E066E082E00E946C028C2F25
S11303300E94C70341E065E082E00E94DF0240E0E2
S113034066E082E00E94DF02CF91089541E063E01D
S113035081E00E946C0241E065E082E00E946C0250
S113036041E066E082E00E946C0280E00E94C703E4
S113037040E065E082E00E94DF0240E066E082E067
S11303800E94DF020895CF93DF93C82FD62F41E058
S11303900E946C0240E06D2F8C2F0E94DF02DF91DF
S11303A0CF91089520E030E047E853E40E942E0501
S11303B020E030E040E152E40E949A050E943E04AD
S11303C00895CF93DF9300D000D0CDB7DEB726B524
S11303D037B581E090E002C0880F991F2A95E2F7B3
S11303E098B7892B88BF41E060E080E00E946C02EE
S11303F040E066E083E00E946C0241E060E080E05F
S11304000E94DF0285E38A95F1F7000040E060E096
S113041080E00E94DF021A8219821C821B82BE01C4
S11304206D5F7F4FCE0101960E947A040E943804CA
S11304300E942E042B813C8189819A81281B390BCF
S1130440A8E2B7E80E94580720E038E448EE51E0FB
S11304500E9436072233310518F082E390E001C090
S1130460C9010F900F900F900F90DF91CF910895D5
S11304701F920F920FB60F9211242F933F934F9315
S11304805F936F937F938F939F93AF93BF93EF93F8
S1130490FF93E0918000F0918100309761F0A0918A
S11304A07E00B0917F0084B195B18D939C930995A2
S11304B086B1877F86B9FF91EF91BF91AF919F91EC
S11304C08F917F916F915F914F913F912F910F90F9
S11304D00FBE0F901F901895423008F06FC0413046
S11304E0A1F5813089F028F08230C9F0833011F110
S11304F008952AB381E090E002C0880F991F6A959D
S1130500E2F7822B8ABB089527B381E090E002C012
S1130510880F991F6A95E2F7822B87BB089524B34D
S113052081E090E002C0880F991F6A95E2F7822B60
S113053084BB089521B381E090E002C0880F991F25
S11305406A95E2F7822B81BB0895411137C081304F
S113055091F028F08230D9F0833029F108952AB33C
S113056081E090E002C0880F991F6A95E2F78095B8
S113057082238ABB089527B381E090E002C0880FEC
S1130580991F6A95E2F78095822387BB089524B367
S113059081E090E002C0880F991F6A95E2F7809588
S11305A0822384BB089521B381E090E002C0880FC8
S11305B0991F6A95E2F78095822381BB08954230A2
S11305C008F06FC04130A1F5813089F028F0823005
S11305D0C9F0833011F108952BB381E090E002C09B
S11305E0880F991F6A95E2F7822B8BBB089528B375
S11305F081E090E002C0880F991F6A95E2F7822B90
S113060088BB089525B381E090E002C0880F991F4C
S11306106A95E2F7822B85BB089522B381E090E0CE
S113062002C0880F991F6A95E2F7822B82BB089556
S1130630411137C0813091F028F08230D9F08330F5
S113064029F108952BB381E090E002C0880F991F2F
S11306506A95E2F7809582238BBB089528B381E0E5
S113066090E002C0880F991F6A95E2F78095822373
S113067088BB089525B381E090E002C0880F991FDC
S11306806A95E2F78095822385BB089522B381E0C1
S113069090E002C0880F991F6A95E2F78095822343
S11306A082BB08951F920F920FB60F9211242F93BD
S11306B03F934F935F936F937F938F939F93AF93E6
S11306C0BF93EF93FF93E0918200F091830009952B
S11306D0FF91EF91BF91AF919F918F917F916F9116
S11306E05F914F913F912F910F900FBE0F901F90EC
S11306F018951F920F920FB60F9211242F933F93C8
S11307004F935F936F937F938F939F93AF93BF9315
S1130710EF93FF93E0918400F09185000995FF9198
S1130720EF91BF91AF919F918F917F916F915F9165
S11307304F913F912F910F900FBE0F901F901895DE
S11307401F920F920FB60F9211242F933F934F9342
S11307505F936F937F938F939F93AF93BF93EF9325
S1130760FF93E0918600F09187000995FF91EF9146
S1130770BF91AF919F918F917F916F915F914F91B5
S11307803F912F910F900FBE0F901F90189593B724
S1130790906493BF93B7986093BF93B7906293BFED
S11307A093B79F7E93BF93B7987F93BF93B793609C
S11307B093BF880F8CBF08951F920F920FB60F92AC
S11307C011242F933F934F935F936F937F938F9352
S11307D09F93AF93BF93EF93FF93E0918800F091C1
S11307E08900309709F00995FF91EF91BF91AF917E
S11307F09F918F917F916F915F914F913F912F9135
S11308000F900FBE0F901F9018951F920F920FB666
S11308100F9211242F933F934F935F936F937F9382
S11308208F939F93AF93BF93EF93FF93E0918A00CD
S1130830F0918B00309709F00995FF91EF91BF91EA
S1130840AF919F918F917F916F915F914F913F9164
S11308502F910F900FBE0F901F9018958EB58B7F20
S11308608EBD8EB58D7F8EBD8EB58E7F8EBD089567
S11308701FBC1EBC08959BBD8ABD0895CF92DF9214
S1130880EF92FF922EB520612EBD2EB528602EBDAD
S11308902FB522602FBD2FB52E7F2FBD2EB5287FFB
S11308A02EBD2EB522602EBD2FB520682FBD2FB5CD
S11308B02F7B2FBD20E43CE937BD26BD20E030E08E
S11308C048EC52E40E949A056B017C0166B577B549
S11308D080E090E00E943B06A70196010E94C906B1
S11308E00E940C06CB010E943B04FF90EF90DF9026
S11308F0CF90089521EC2EBD08B605FEFDCF26B598
S113090037B5FC013183208326B537B581E090E00B
S113091002C0880F991F2A95E2F798B7892B88BFE0
S113092081E88EBD08B605FEFDCF86B597B5FB01FF
S11309309183808388B7806288BF089595B5906459
S113094095BD95B5986095BD95B5906295BD95B5E5
S11309509F7E95BD95B5987F95BD95B5936095BDE2
S1130960880F83BD08951F920F920FB60F92112422
S11309702F933F934F935F936F937F938F939F93A3
S1130980AF93BF93EF93FF93E0918C00F0918D00B0
S1130990309709F00995FF91EF91BF91AF919F9125
S11309A08F917F916F915F914F913F912F910F9014
S11309B00FBE0F901F9018951F920F920FB60F92B3
S11309C011242F933F934F935F936F937F938F9350
S11309D09F93AF93BF93EF93FF93E0918E00F091B9
S11309E08F00309709F00995FF91EF91BF91AF9176
S11309F09F918F917F916F915F914F913F912F9133
S1130A000F900FBE0F901F90189587E689B980B597
S1130A108F7B80BD80B58F7C80BD80B580BD80B567
S1130A20877F80BD80B5866880BD8AB180618AB9C0
S1130A308AB188608AB908955D9BFECF8CB9089508
S1130A40CF93DF93EC0103C021960E941C0588819B
S1130A508111FACFDF91CF9108955058BB27AA276F
S1130A600E9445050C948F060E94810638F00E946E
S1130A70880620F039F49F3F19F426F40C947E067E
S1130A800EF4E095E7FB0C947806E92F0E94A0068B
S1130A9058F3BA17620773078407950720F079F4AF
S1130AA0A6F50C94C2060EF4E0950B2EBA2FA02DD9
S1130AB00B01B90190010C01CA01A0011124FF2707
S1130AC0591B99F0593F50F4503E68F11A16F04002
S1130AD0A22F232F342F4427585FF3CF4695379501
S1130AE02795A795F0405395C9F77EF41F16BA0BC6
S1130AF0620B730B840BBAF09150A1F0FF0FBB1F74
S1130B00661F771F881FC2F70EC0BA0F621F731FBC
S1130B10841F48F4879577956795B795F7959E3F19
S1130B2008F0B0CF9395880F08F09927EE0F9795AA
S1130B30879508950E94AE050C948F060E9488063E
S1130B4058F00E94810640F029F45F3F29F00C948C
S1130B50780651110C94C3060C947E060E94A006DC
S1130B6068F39923B1F3552391F3951B550BBB27D8
S1130B70AA2762177307840738F09F5F5F4F220F1D
S1130B80331F441FAA1FA9F335D00E2E3AF0E0E814
S1130B9032D091505040E695001CCAF72BD0FE2F5E
S1130BA029D0660F771F881FBB1F261737074807F2
S1130BB0AB07B0E809F0BB0B802DBF01FF279358AA
S1130BC05F4F3AF09E3F510578F00C9478060C94F0
S1130BD0C3065F3FE4F3983ED4F386957795679513
S1130BE0B795F7959F5FC9F7880F911D96958795DF
S1130BF097F90895E1E0660F771F881FBB1F6217FE
S1130C0073078407BA0720F0621B730B840BBA0BBB
S1130C10EE1F88F7E09508950E94A80688F09F5774
S1130C2098F0B92F9927B751B0F0E1F0660F771F0C
S1130C30881F991F1AF0BA95C9F714C0B13091F002
S1130C400E94C206B1E008950C94C206672F782F63
S1130C508827B85F39F0B93FCCF3869577956795C7
S1130C60B395D9F73EF490958095709561957F4F33
S1130C708F4F9F4F0895E89409C097FB3EF49095D9
S1130C808095709561957F4F8F4F9F4F9923A9F061
S1130C90F92F96E9BB279395F695879577956795F0
S1130CA0B795F111F8CFFAF4BB0F11F460FF1BC034
S1130CB06F5F7F4F8F4F9F4F16C0882311F096E9C7
S1130CC011C0772321F09EE8872F762F05C0662375
S1130CD071F096E8862F70E060E02AF09A95660F2E
S1130CE0771F881FDAF7880F9695879597F90895E7
S1130CF097F99F6780E870E060E008959FEF80ECCB
S1130D00089500240A94161617061806090608956D
S1130D1000240A9412161306140605060895092ED3
S1130D200394000C11F4882352F0BB0F40F4BF2B42
S1130D3011F460FF04C06F5F7F4F8F4F9F4F089582
S1130D4057FD9058440F551F59F05F3F71F0479578
S1130D50880F97FB991F61F09F3F79F0879508955D
S1130D60121613061406551FF2CF4695F1DF08C07C
S1130D70161617061806991FF1CF86957105610599
S1130D8008940895E894BB2766277727CB0197F941
S1130D9008950E94DC060C948F060E94810638F0A8
S1130DA00E94880620F0952311F00C9478060C9488
S1130DB07E0611240C94C3060E94A00670F3959F2E
S1130DC0C1F3950F50E0551F629FF001729FBB273E
S1130DD0F00DB11D639FAA27F00DB11DAA1F649FDA
S1130DE06627B00DA11D661F829F2227B00DA11D8D
S1130DF0621F739FB00DA11D621F839FA00D611D13
S1130E00221F749F3327A00D611D231F849F600D33
S1130E10211D822F762F6A2F11249F5750409AF05C
S1130E20F1F088234AF0EE0FFF1FBB1F661F771FE8
S1130E30881F91505040A9F79E3F510580F00C94B3
S1130E4078060C94C3065F3FE4F3983ED4F386958A
S1130E5077956795B795F795E7959F5FC1F7FE2B53
S1130E60880F911D9695879597F90895A1E21A2EFA
S1130E70AA1BBB1BFD010DC0AA1FBB1FEE1FFF1F3A
S1130E80A217B307E407F50720F0A21BB30BE40B8A
S1130E90F50B661F771F881F991F1A9469F76095D1
S1130EA07095809590959B01AC01BD01CF0108958B
S1130EB0A29FB001B39FC001A39F700D811D112497
S1130EC0911DB29F700D811D1124911D0895F894F8
S1050ED0FFCF4E
S1130ED241540D0A0041542B524F4C453D310D0AE9
S1110EE20041542B434D4F44453D310D0A0051
S9030000FC
