:100000000C942A000C9479020C94A0020C94C70260
:100010000C94C4030C949B030C9447000C9447006D
:100020000C9447000C9447000C942C030C9403038D
:100030000C9447000C9447000C9447000C94470024
:100040000C945F010C9447000C9447000C944700FB
:100050000C94470011241FBECFE5D8E0DEBFCDBF12
:1000600010E0A0E6B0E0E0E4F8E002C005900D92F8
:10007000A036B107D9F720E0A0E6B0E001C01D929C
:10008000A237B207E1F70E9449000C941E040C94B9
:1000900000008AE50E9470008AE50E94AD000E947F
:1000A00008012FEF31EE44E0215030404040E1F7AD
:1000B00000C000000A9748F40E9490000E94CD0002
:1000C00062E082E00E94EA00EACF8AE50E947000C6
:1000D0008AE50E94AD0062E082E00E94F900DFCF75
:1000E000CF93C82F41E064E083E00E94930141E098
:1000F00063E082E00E94930141E064E082E00E94BC
:1001000093018C2F0E94860341E063E082E00E940D
:10011000060240E064E082E00E940602CF9108956A
:1001200041E064E083E00E94930141E063E082E00B
:100130000E94930141E064E082E00E94930180E02C
:100140000E94860340E063E082E00E94060240E0F5
:1001500064E082E00E9406020895CF93C82F41E038
:1001600063E081E00E94930141E065E082E00E944B
:10017000930141E066E082E00E9493018C2F0E948F
:10018000EE0241E065E082E00E94060240E066E0A7
:1001900082E00E940602CF91089541E063E081E091
:1001A0000E94930141E065E082E00E94930141E0FA
:1001B00066E082E00E94930180E00E94EE0240E04F
:1001C00065E082E00E94060240E066E082E00E9474
:1001D00006020895CF93DF93C82FD62F41E00E94E7
:1001E000930141E06D2F8C2F0E940602DF91CF9189
:1001F0000895CF93DF93C82FD62F41E00E9493013B
:1002000040E06D2F8C2F0E940602DF91CF91089560
:10021000CF93DF9300D000D0CDB7DEB726B537B58A
:1002200081E090E002C0880F991F2A95E2F798B705
:10023000892B88BF41E060E080E00E94930140E0AC
:1002400066E083E00E94930141E060E080E00E946C
:10025000060285E38A95F1F7000040E060E080E067
:100260000E9406021A8219821C821B82BE016D5FE7
:100270007F4FCE0101960E9462030E945F030E949D
:1002800055032B813C8189819A81281B390BA8E277
:10029000B7E80E940F0420E038E448EE51E00E94E5
:1002A000ED032233310518F082E390E001C0C9016B
:1002B0000F900F900F900F90DF91CF9108951F92A4
:1002C0000F920FB60F9211242F933F934F935F938A
:1002D0006F937F938F939F93AF93BF93EF93FF930E
:1002E000E0916200F0916300309761F0A0916000AE
:1002F000B091610084B195B18D939C93099586B1BD
:10030000877F86B9FF91EF91BF91AF919F918F91B8
:100310007F916F915F914F913F912F910F900FBE01
:100320000F901F901895423008F06FC04130A1F532
:10033000813089F028F08230C9F0833011F10895BE
:100340002AB381E090E002C0880F991F6A95E2F716
:10035000822B8ABB089527B381E090E002C0880F0A
:10036000991F6A95E2F7822B87BB089524B381E039
:1003700090E002C0880F991F6A95E2F7822B84BB38
:10038000089521B381E090E002C0880F991F6A951B
:10039000E2F7822B81BB0895411137C0813091F083
:1003A00028F08230D9F0833029F108952AB381E012
:1003B00090E002C0880F991F6A95E2F7809582232A
:1003C0008ABB089527B381E090E002C0880F991F8F
:1003D0006A95E2F78095822387BB089524B381E074
:1003E00090E002C0880F991F6A95E2F780958223FA
:1003F00084BB089521B381E090E002C0880F991F6B
:100400006A95E2F78095822381BB0895423008F017
:100410006FC04130A1F5813089F028F08230C9F0F9
:10042000833011F108952BB381E090E002C0880F72
:10043000991F6A95E2F7822B8BBB089528B381E060
:1004400090E002C0880F991F6A95E2F7822B88BB63
:10045000089525B381E090E002C0880F991F6A9546
:10046000E2F7822B85BB089522B381E090E002C0C1
:10047000880F991F6A95E2F7822B82BB089541117C
:1004800037C0813091F028F08230D9F0833029F1E3
:1004900008952BB381E090E002C0880F991F6A9500
:1004A000E2F7809582238BBB089528B381E090E02A
:1004B00002C0880F991F6A95E2F78095822388BB56
:1004C000089525B381E090E002C0880F991F6A95D6
:1004D000E2F78095822385BB089522B381E090E006
:1004E00002C0880F991F6A95E2F78095822382BB2C
:1004F00008951F920F920FB60F9211242F933F93DE
:100500004F935F936F937F938F939F93AF93BF931B
:10051000EF93FF93E0916400F09165000995FF91DE
:10052000EF91BF91AF919F918F917F916F915F916B
:100530004F913F912F910F900FBE0F901F901895E4
:100540001F920F920FB60F9211242F933F934F9348
:100550005F936F937F938F939F93AF93BF93EF932B
:10056000FF93E0916600F09167000995FF91EF918C
:10057000BF91AF919F918F917F916F915F914F91BB
:100580003F912F910F900FBE0F901F9018951F92C3
:100590000F920FB60F9211242F933F934F935F93B7
:1005A0006F937F938F939F93AF93BF93EF93FF933B
:1005B000E0916800F09169000995FF91EF91BF917A
:1005C000AF919F918F917F916F915F914F913F91EB
:1005D0002F910F900FBE0F901F90189593B79064B6
:1005E00093BF93B7986093BF93B7906293BF93B74D
:1005F0009F7E93BF93B7987F93BF93B7936093BF4A
:10060000880F8CBF08951F920F920FB60F9211247E
:100610002F933F934F935F936F937F938F939F930A
:10062000AF93BF93EF93FF93E0916A00F0916B005B
:10063000309709F00995FF91EF91BF91AF919F918C
:100640008F917F916F915F914F913F912F910F907B
:100650000FBE0F901F9018951F920F920FB60F921A
:1006600011242F933F934F935F936F937F938F93B7
:100670009F93AF93BF93EF93FF93E0916C00F09142
:100680006D00309709F00995FF91EF91BF91AF91FF
:100690009F918F917F916F915F914F913F912F919A
:1006A0000F900FBE0F901F9018958EB58B7F8EBD4B
:1006B0008EB58D7F8EBD8EB58E7F8EBD08951FBC8D
:1006C0001EBC089521EC2EBD08B605FEFDCF26B553
:1006D00037B5FC013183208326B537B581E090E042
:1006E00002C0880F991F2A95E2F798B7892B88BF17
:1006F00081E88EBD08B605FEFDCF86B597B5FB0136
:100700009183808388B7806288BF089595B590648F
:1007100095BD95B5986095BD95B5906295BD95B51B
:100720009F7E95BD95B5987F95BD95B5936095BD18
:10073000880F83BD08951F920F920FB60F92112458
:100740002F933F934F935F936F937F938F939F93D9
:10075000AF93BF93EF93FF93E0916E00F0916F0022
:10076000309709F00995FF91EF91BF91AF919F915B
:100770008F917F916F915F914F913F912F910F904A
:100780000FBE0F901F9018951F920F920FB60F92E9
:1007900011242F933F934F935F936F937F938F9386
:1007A0009F93AF93BF93EF93FF93E0917000F0910D
:1007B0007100309709F00995FF91EF91BF91AF91CA
:1007C0009F918F917F916F915F914F913F912F9169
:1007D0000F900FBE0F901F901895A1E21A2EAA1B22
:1007E000BB1BFD010DC0AA1FBB1FEE1FFF1FA217E1
:1007F000B307E407F50720F0A21BB30BE40BF50BDE
:10080000661F771F881F991F1A9469F76095709566
:10081000809590959B01AC01BD01CF010895A29FE9
:10082000B001B39FC001A39F700D811D1124911DC4
:10083000B29F700D811D1124911D0895F894FFCF72
:00000001FF
