:100000000C942A000C9420030C9447030C946E0368
:100010000C9441040C9418040C9447000C94470071
:100020000C9447000C9447000C94BE030C94950369
:100030000C9447000C9447000C9447000C94470024
:100040000C94F6010C9447000C9447000C94470064
:100050000C94470011241FBECFE5D8E0DEBFCDBF12
:1000600010E0A0E6B0E0EAE3F9E002C005900D92EE
:10007000A237B107D9F720E0A2E7B0E001C01D9296
:10008000A438B207E1F70E9449000C949B040C9439
:10009000000060EF80E00E9410036EE081E00E94AB
:1000A00010030E94C8000E94A501EC0160E080E0FE
:1000B0000E947401CE010E9414012A9738F40E9414
:1000C000830162E082E00E948701EDCF62E082E07E
:1000D0000E949601E8CF0F931F93CF93DF9300D038
:1000E00000D0CDB7DEB7082F84E0898385E08A830E
:1000F00086E08B8387E08C8310E014C0402F50E0B3
:10010000012E02C0559547950A94E2F74170E1E04F
:10011000F0E0EC0FFD1FE10FF11D608180E00E9417
:100120009D021F5F143050F30F900F900F900F90AF
:10013000DF91CF911F910F91089541E063E081E03D
:100140000E949D028FE39FE10197F1F700C000003C
:1001500040E063E081E00E949D020895CF93C82FA4
:1001600040E061E081E00E949D0240E062E081E0C9
:100170000E949D028C2F82958F700E946B000E94BE
:100180009D008C2F0E946B000E949D00CF910895CE
:100190002FEF83EF91E0215080409040E1F700C0C5
:1001A000000082E00E946B000E949D0082E00E949D
:1001B0006B000E949D0088E00E946B000E949D00E1
:1001C0008CE00E94AE0081E00E94AE000895CF93C3
:1001D000C82F41E061E081E00E949D0240E062E0C2
:1001E00081E00E949D028C2F82958F700E946B008F
:1001F0000E949D008C2F0E946B000E949D00CF9159
:1002000008950F931F93CF938C01C0E003C00E9409
:10021000E700CF5FF801EC0FF11D80818111F7CF6E
:10022000CF911F910F9108950F931F93CF93DF9359
:10023000CDB7DEB760970FB6F894DEBF0FBECDBF67
:10024000AC01892B81F580E30E94E70042C09A014E
:10025000ADECBCEC0E948C0496958795969587959D
:10026000969587959C01220F331F880F991F880F41
:10027000991F880F991F820F931F9A01281B390B12
:10028000E1E0F0E0EC0FFD1FE00FF11D20839A018B
:100290000E948C04AC015695479556954795569506
:1002A00047950F5F01C000E04115510581F610E050
:1002B000015011090CC0E1E0F0E0EC0FFD1FE00F70
:1002C000F11F8081805D0E94E70001501109112318
:1002D00094F760960FB6F894DEBF0FBECDBFDF91E6
:1002E000CF911F910F910895623040F490E4699F7F
:1002F000800D112480680E94AE00089580E690E091
:100300000E940101089581E00E94AE000895CF93FC
:10031000DF93C82FD62F41E00E942A0241E06D2FC3
:100320008C2F0E949D02DF91CF910895CF93DF9390
:10033000C82FD62F41E00E942A0240E06D2F8C2F5B
:100340000E949D02DF91CF910895CF93DF9300D05B
:1003500000D0CDB7DEB726B537B581E090E002C05A
:10036000880F991F2A95E2F798B7892B88BF41E03B
:1003700060E080E00E942A0240E066E083E00E94A4
:100380002A0241E060E080E00E949D0285E38A95B8
:10039000F1F7000040E060E080E00E949D021A82D8
:1003A00019821C821B82BE016D5F7F4FCE010196B8
:1003B0000E94F4030E94F1030E94E7032B813C8119
:1003C00089819A81281B390BA8E2B7E80E948C0426
:1003D00020E038E448EE51E00E946A04C9010F9021
:1003E0000F900F900F90DF91CF9108951F920F9271
:1003F0000FB60F9211242F933F934F935F936F93F8
:100400007F938F939F93AF93BF93EF93FF93E0916D
:100410007400F0917500309761F0A0917200B09176
:10042000730084B195B18D939C93099586B1877FB4
:1004300086B9FF91EF91BF91AF919F918F917F917D
:100440006F915F914F913F912F910F900FBE0F9041
:100450001F901895423008F06FC04130A1F58130EF
:1004600089F028F08230C9F0833011F108952AB361
:1004700081E090E002C0880F991F6A95E2F7822B15
:100480008ABB089527B381E090E002C0880F991FCE
:100490006A95E2F7822B87BB089524B381E090E050
:1004A00002C0880F991F6A95E2F7822B84BB0895DA
:1004B00021B381E090E002C0880F991F6A95E2F7AE
:1004C000822B81BB0895411137C0813091F028F013
:1004D0008230D9F0833029F108952AB381E090E089
:1004E00002C0880F991F6A95E2F7809582238ABB24
:1004F000089527B381E090E002C0880F991F6A95A4
:10050000E2F78095822387BB089524B381E090E0D1
:1005100002C0880F991F6A95E2F78095822384BBF9
:10052000089521B381E090E002C0880F991F6A9579
:10053000E2F78095822381BB0895423008F06FC0B6
:100540004130A1F5813089F028F08230C9F0833044
:1005500011F108952BB381E090E002C0880F991F3C
:100560006A95E2F7822B8BBB089528B381E090E077
:1005700002C0880F991F6A95E2F7822B88BB089505
:1005800025B381E090E002C0880F991F6A95E2F7D9
:10059000822B85BB089522B381E090E002C0880FD2
:1005A000991F6A95E2F7822B82BB0895411137C0EB
:1005B000813091F028F08230D9F0833029F108950C
:1005C0002BB381E090E002C0880F991F6A95E2F793
:1005D000809582238BBB089528B381E090E002C010
:1005E000880F991F6A95E2F78095822388BB08954A
:1005F00025B381E090E002C0880F991F6A95E2F769
:100600008095822385BB089522B381E090E002C0EB
:10061000880F991F6A95E2F78095822382BB08951F
:10062000813041F028F0823039F0833039F008957C
:100630006ABB089567BB089564BB089561BB0895C4
:100640001F920F920FB60F9211242F933F934F9347
:100650005F936F937F938F939F93AF93BF93EF932A
:10066000FF93E0917600F09177000995FF91EF916B
:10067000BF91AF919F918F917F916F915F914F91BA
:100680003F912F910F900FBE0F901F9018951F92C2
:100690000F920FB60F9211242F933F934F935F93B6
:1006A0006F937F938F939F93AF93BF93EF93FF933A
:1006B000E0917800F09179000995FF91EF91BF9159
:1006C000AF919F918F917F916F915F914F913F91EA
:1006D0002F910F900FBE0F901F9018951F920F92A1
:1006E0000FB60F9211242F933F934F935F936F9305
:1006F0007F938F939F93AF93BF93EF93FF93E0917B
:100700007A00F0917B000995FF91EF91BF91AF9135
:100710009F918F917F916F915F914F913F912F9119
:100720000F900FBE0F901F9018951F920F920FB64B
:100730000F9211242F933F934F935F936F937F9367
:100740008F939F93AF93BF93EF93FF93E0917C00C0
:10075000F0917D00309709F00995FF91EF91BF91DD
:10076000AF919F918F917F916F915F914F913F9149
:100770002F910F900FBE0F901F9018951F920F9200
:100780000FB60F9211242F933F934F935F936F9364
:100790007F938F939F93AF93BF93EF93FF93E091DA
:1007A0007E00F0917F00309709F00995FF91EF915D
:1007B000BF91AF919F918F917F916F915F914F9179
:1007C0003F912F910F900FBE0F901F9018958EB5EF
:1007D0008B7F8EBD8EB58D7F8EBD8EB58E7F8EBD8F
:1007E00008951FBC1EBC089521EC2EBD08B605FE61
:1007F000FDCF26B537B5FC013183208326B537B54B
:1008000081E090E002C0880F991F2A95E2F798B71F
:10081000892B88BF81E88EBD08B605FEFDCF86B561
:1008200097B5FB019183808388B7806288BF089564
:100830001F920F920FB60F9211242F933F934F9355
:100840005F936F937F938F939F93AF93BF93EF9338
:10085000FF93E0918000F0918100309709F00995B5
:10086000FF91EF91BF91AF919F918F917F916F9188
:100870005F914F913F912F910F900FBE0F901F905E
:1008800018951F920F920FB60F9211242F933F933A
:100890004F935F936F937F938F939F93AF93BF9388
:1008A000EF93FF93E0918200F0918300309709F07D
:1008B0000995FF91EF91BF91AF919F918F917F919A
:1008C0006F915F914F913F912F910F900FBE0F90BD
:1008D0001F901895A1E21A2EAA1BBB1BFD010DC08B
:1008E000AA1FBB1FEE1FFF1FA217B307E407F507E0
:1008F00020F0A21BB30BE40BF50B661F771F881FBC
:10090000991F1A9469F760957095809590959B0151
:10091000AC01BD01CF010895A29FB001B39FC001FA
:10092000A39F700D811D1124911DB29F700D811D1B
:0A0930001124911D0895F894FFCFE3
:10093A00496E76616C696420506F736974696F6E71
:02094A0021008A
:00000001FF
