S01300004170706C69636174696F6E2E737265639D
S11300000C942A000C9437020C945E020C94850222
S11300100C9451030C9428030C9447000C9447004F
S11300200C9447000C9447000C94EA020C94C1020F
S11300300C9447000C9447000C9447000C94470020
S11300400C941D010C9447000C9447000C94470039
S11300500C94470011241FBECFE5D8E0DEBFCDBF0E
S113006010E0A0E6B0E0EEE2F7E002C005900D92E9
S1130070A036B107D9F720E0A0E6B0E001C01D9298
S1130080A237B207E1F70E9449000C9495030C943F
S113009000000E947A0386E40E94850086E40E94A0
S11300A0C2000E9491038C3631F118F4863671F047
S11300B0F8CF8237B1F08337A1F70E94A5000E94E0
S11300C0E20062E082E00E94FF00EBCF86E40E943F
S11300D0850086E40E94C20062E082E00E940E0174
S11300E0E0CF86E40E9485000E94E20062E082E0A4
S11300F00E940E01D6CF86E40E94C2000E94A50091
S113010062E082E00E940E01CCCFCF93C82F41E081
S113011064E083E00E94510141E063E082E00E94D8
S1130120510141E064E082E00E9451018C2F0E9461
S1130130130341E063E082E00E94C40140E064E014
S113014082E00E94C401CF91089541E064E083E01D
S11301500E94510141E063E082E00E94510141E0CC
S113016064E082E00E94510180E00E94130340E0B9
S113017063E082E00E94C40140E064E082E00E9407
S1130180C4010895CF93C82F41E063E081E00E9449
S1130190510141E065E082E00E94510141E066E0E6
S11301A082E00E9451018C2F0E94AC0241E065E084
S11301B082E00E94C40140E066E082E00E94C40143
S11301C0CF91089541E063E081E00E94510141E054
S11301D065E082E00E94510141E066E082E00E9415
S11301E0510180E00E94AC0240E065E082E00E94A0
S11301F0C40140E066E082E00E94C4010895CF9308
S1130200DF93C82FD62F41E00E94510141E06D2FAA
S11302108C2F0E94C401DF91CF910895CF93DF9377
S1130220C82FD62F41E00E94510140E06D2F8C2F42
S11302300E94C401DF91CF9108951F920F920FB6CF
S11302400F9211242F933F934F935F936F937F9358
S11302508F939F93AF93BF93EF93FF93E0916200CB
S1130260F0916300309761F0A0916000B09161005B
S113027084B195B18D939C93099586B1877F86B996
S1130280FF91EF91BF91AF919F918F917F916F916A
S11302905F914F913F912F910F900FBE0F901F9040
S11302A01895423008F06FC04130A1F5813089F0D3
S11302B028F08230C9F0833011F108952AB381E027
S11302C090E002C0880F991F6A95E2F7822B8ABBDF
S11302D0089527B381E090E002C0880F991F6A95C2
S11302E0E2F7822B87BB089524B381E090E002C03B
S11302F0880F991F6A95E2F7822B84BB089521B376
S113030081E090E002C0880F991F6A95E2F7822B82
S113031081BB0895411137C0813091F028F08230BB
S1130320D9F0833029F108952AB381E090E002C026
S1130330880F991F6A95E2F7809582238ABB0895F6
S113034027B381E090E002C0880F991F6A95E2F715
S11303508095822387BB089524B381E090E002C096
S1130360880F991F6A95E2F78095822384BB0895CC
S113037021B381E090E002C0880F991F6A95E2F7EB
S11303808095822381BB0895423008F06FC04130CC
S1130390A1F5813089F028F08230C9F0833011F161
S11303A008952BB381E090E002C0880F991F6A95ED
S11303B0E2F7822B8BBB089528B381E090E002C062
S11303C0880F991F6A95E2F7822B88BB089525B39D
S11303D081E090E002C0880F991F6A95E2F7822BB2
S11303E085BB089522B381E090E002C0880F991F75
S11303F06A95E2F7822B82BB0895411137C08130A0
S113040091F028F08230D9F0833029F108952BB38C
S113041081E090E002C0880F991F6A95E2F7809509
S113042082238BBB089528B381E090E002C0880F3B
S1130430991F6A95E2F78095822388BB089525B3B6
S113044081E090E002C0880F991F6A95E2F78095D9
S1130450822385BB089522B381E090E002C0880F17
S1130460991F6A95E2F78095822382BB08951F92B3
S11304700F920FB60F9211242F933F934F935F93D4
S11304806F937F938F939F93AF93BF93EF93FF9358
S1130490E0916400F09165000995FF91EF91BF919F
S11304A0AF919F918F917F916F915F914F913F9108
S11304B02F910F900FBE0F901F9018951F920F92BF
S11304C00FB60F9211242F933F934F935F936F9323
S11304D07F938F939F93AF93BF93EF93FF93E09199
S11304E06600F09167000995FF91EF91BF91AF917C
S11304F09F918F917F916F915F914F913F912F9138
S11305000F900FBE0F901F9018951F920F920FB669
S11305100F9211242F933F934F935F936F937F9385
S11305208F939F93AF93BF93EF93FF93E0916800F2
S1130530F09169000995FF91EF91BF91AF919F915F
S11305408F917F916F915F914F913F912F910F9078
S11305500FBE0F901F90189593B7906493BF93B7F5
S1130560986093BF93B7906293BF93B79F7E93BFF6
S113057093B7987F93BF93B7936093BF880F8CBF53
S113058008951F920F920FB60F9211242F933F9349
S11305904F935F936F937F938F939F93AF93BF9387
S11305A0EF93FF93E0916A00F0916B00309709F0AC
S11305B00995FF91EF91BF91AF919F918F917F9199
S11305C06F915F914F913F912F910F900FBE0F90BC
S11305D01F9018951F920F920FB60F9211242F930C
S11305E03F934F935F936F937F938F939F93AF93B7
S11305F0BF93EF93FF93E0916C00F0916D003097FF
S113060009F00995FF91EF91BF91AF919F918F915F
S11306107F916F915F914F913F912F910F900FBEFA
S11306200F901F90189595B5906495BD95B59860F9
S113063095BD95B5906295BD95B59F7E95BD95B5D3
S1130640987F95BD95B5936095BD880F83BD08953A
S11306501F920F920FB60F9211242F933F934F9333
S11306605F936F937F938F939F93AF93BF93EF9316
S1130670FF93E0916E00F0916F00309709F00995B7
S1130680FF91EF91BF91AF919F918F917F916F9166
S11306905F914F913F912F910F900FBE0F901F903C
S11306A018951F920F920FB60F9211242F933F9318
S11306B04F935F936F937F938F939F93AF93BF9366
S11306C0EF93FF93E0917000F0917100309709F07F
S11306D00995FF91EF91BF91AF919F918F917F9178
S11306E06F915F914F913F912F910F900FBE0F909B
S11306F01F90189587E689B980B58F7B80BD80B53A
S11307008F7C80BD80B580BD80B5877F80BD80B57E
S1130710866880BD8AB180618AB98AB188608AB9E5
S111072008955F9BFECF8CB10895F894FFCF2F
S9030000FC
